:020000040800F2
:1000000000800120E11500082D16000801040008F9
:10001000070400080D040008130400080000000095
:100020000000000000000000000000002D16000885
:100030002D160008000000002D1600082D160008DF
:100040002D1600082D1600082D1600082D16000884
:100050002D1600082D1600082D1600082D16000874
:100060002D1600082D1600082D1600082D16000864
:100070002D1600082D1600082D1600082D16000854
:100080002D1600082D1600082D160008000000008F
:100090000000000000000000000000002D16000815
:1000A0002D1600082D1600082D1600082D16000824
:1000B0002D1600082D1600082D1600082D16000814
:1000C0002D1600082D1600082D1600082D16000804
:1000D0002D1600082D1600082D160008000000003F
:1000E0002D1600082D1600082D160008000000002F
:1000F0000000000000000000000000002D160008B5
:10010000000000002D1600082D1600082D1600080E
:1001100000000000000000000000000000000000DF
:100120002D1600082D1600082D1600082D160008A3
:100130002D16000800000000000000000000000074
:100140000000000000000000000000002D16000864
:100150002D1600082D1600082D1600082D16000873
:100160002D1600082D1600080000000000000000F9
:10017000000000000000000000000000000000007F
:10018000000000002D160008000000000000000024
:100190002D16000810B5054C237833B9044B13B164
:1001A0000448AFF300800123237010BD600B0020D2
:1001B0000000000038EE0008084B10B51BB10848DD
:1001C0000849AFF300800848036803B910BD074B26
:1001D000002BFBD0BDE81040184700BF0000000016
:1001E00038EE0008640B00205C0B002000000000CB
:1001F000154B002B08BF134B9D46A3F5803A0021F9
:100200008B460F461348144A121A03F0F5FF0F4BA2
:10021000002B00D098470E4B002B00D098470020B1
:10022000002104000D000D48002802D00C4800F009
:1002300009FC03F0BFFD2000290000F0BDFE00F026
:1002400073FD00BF000008000080012000000000D6
:10025000A90F0008600B0020600F0020450A00086D
:10026000000000000368184708B10B68036070477E
:100270007047000010B5094B036003F12002803382
:100280000446C0F8B020C0F8B430B03002F0FCFC36
:10029000204602F06BF9204610BD00BFB8E300080D
:1002A000A0F1B000FFF7E6BFA0F1B400FFF7E2BF96
:1002B00007B5164816490DF1070202F016FD9DF824
:1002C0000730612B06D1134B10489A681B681360E6
:1002D000114908E0622B0DD10E4B0C48DA681B68FF
:1002E0000E491B04136002F0E1FC4FF0814002F064
:1002F000D5FE03E005480A4902F0D8FC0949034845
:1003000002F0D4FC03B05DF804FB00BF480C0020F1
:1003100008DD00087C0B00200BDD000829DD00084B
:1003200048DD00085FDD00081FB500211022684687
:1003300003F062FF114B00931148124B039369467F
:10034000002202F0D9F8039B13B19B6868469847D6
:100350000D480E4902F0AAFC0D4CA36822681A60F1
:100360004FF07E5002F09AFE2368E2681B0413608F
:100370004FF07E5002F092FEEEE700BFB10200089F
:10038000980B0020FCDC0008480C00208DDD0008E4
:100390007C0B002010B50446FFF76CFF204600F0F0
:1003A000E6FC204610BDA0F1B000F3E7A0F1B400D8
:1003B000F0E7000013B50E4C4FF41653009320469F
:1003C00000230221032201F0B7FF2046094C0A490D
:1003D0000A4A00F035FB204600211C2203F00CFFE6
:1003E0002046052102B0BDE8104002F026B900BF4A
:1003F000980B00207C0B002075020008980100205B
:10040000102300F009B8202300F006B8302300F0D4
:1004100003B8402300F000B8EFF3088004217246CF
:100420000A4201D0EFF309809C46244B1968026808
:100430000A60043142680A60043182680A6004314B
:10044000C2680A600431F0C147460F6004314F466C
:100450000F60043157460F6004315F460F6004316E
:1004600002690A60083142690A60043182690A60DF
:100470000431C2690A600431034620334FF4007628
:10048000324200D0043375461026354200D148333D
:100490000C46103C2360EFF309820A600431EFF34D
:1004A00008820A60043172460A600431EFF3148254
:1004B0000A606046014900F0BFF9FEE7C4DE0008AB
:1004C00030B5036891FAA1F4B4FA84F491FAA1F179
:1004D0000325B1FA81F1640005FA04F4490023EA26
:1004E000040302FA01F11943016030BD7FB5002217
:1004F0002A4B07284FD8DFE800F004121E2A364E98
:100500004E4200921A6B264842F001021A631B6B9E
:1005100003F001030093009B07B05DF804FB019218
:100520001A6B204842F002021A631B6B03F00203AD
:100530000193019BF0E702921A6B1B4842F0040200
:100540001A631B6B03F004030293029BE4E703921C
:100550001A6B164842F008021A631B6B03F008037B
:100560000393039BD8E704921A6B114842F01002E0
:100570001A631B6B03F010030493049BCCE70592F2
:100580001A6B0C4842F080021A631B6B03F0800365
:100590000593059BC0E7084802F0F8FC00380240CC
:1005A000000002400004024000080240000C02402B
:1005B00000100240001C024038DE0008431C10B549
:1005C000044604D176220649064802F0ABFB00211E
:1005D00000F016FD04F00F040120A04010BD00BF84
:1005E00059DE0008A9DE000870B504464B1C0E4613
:1005F000218216D0C1F30310FFF778FF054630467D
:10060000FFF7DCFF238A074A656103F00F032060D0
:1006100052F82330A36105F1100318356360A5601B
:10062000E56070BD0CE20008B0F9100000F07ABD82
:100630000A4619B981694069FFF742BF0122F9E70B
:1006400008B501F0C1FD002008BD000008B50A4B47
:100650001B684BB102F028FA02F010FA4FF47A72DC
:1006600000230CF079FA08BD01F00EFE4FF47A7306
:10067000B0FBF3F008BD00BF640C002000B589B0EA
:1006800002F06CFB052101A801F0D7FF114E124DBD
:100690000424039B019A1A60304602F0EFFC019B90
:1006A000049A1B041360304602F0E8FC013CF0D1D0
:1006B0000424039B019A1A60284602F0DFFC019B88
:1006C000049A1B041360284602F0D8FC013CF0D1C8
:1006D000DEE700BFF0490200801A060010B50446AC
:1006E00002F03CFB204604F0B9F821460246022005
:1006F00000F046FABDE8104002F046BB10B5A2B0CB
:100700000B460246842101A806F0C6FA8328044657
:1007100005D9052205490DF1830003F06FFC002C7B
:1007200002DD01A8FFF7DAFF22B010BDBCDE000831
:100730000FB407B504A951F8040B0191FFF7DEFFD0
:1007400003B05DF804EB04B070470000F0B52C4C2A
:100750002C4F85B00025264654F8252029463846DA
:100760000135FFF7E5FF0D2DF6D1A36C0293636C05
:100770000193236C009304F13401234C23480EC9E8
:10078000FFF7D6FF21682248FFF7D2FFE16AA26A8D
:10079000A36AA06A256BE76B0297000C0195009095
:1007A000C3F30723D2B21B48FFF7C2FFA36A1D069B
:1007B00003D5616B1848FFF7BBFFA36A180403D584
:1007C000A16B1648FFF7B4FFF36C190712D5144854
:1007D000FFF7AEFF336DDA070FD51248FFF7A8FF1A
:1007E000F36C5B074CBF1048104805B0BDE8F04003
:1007F000FFF79EBF0E48FFF79BFF0E48EEE700BFD6
:10080000B00D002058DF000800ED00E066DF0008B2
:10081000B5DF0008C3DF000812E0000820E0000890
:100820002EE000083DE000086DE0000879E00008D7
:100830005DE000084AE0000813B504461548FFF7DC
:1008400077FF302C17D0402C1AD0202C1DD1124805
:10085000124CFFF76DFF1248FFF76AFFFFF776FFB4
:100860001048FFF765FF00230F4A0093D26B0F4932
:10087000204602F0ABFB0E480E4CFFF759FFEAE7AB
:100880000D480E4CFFF754FFE5E70D480D4CFFF700
:100890004FFFE0E7C8DE0008F1DE00083E01FF8000
:1008A0001EDF000829DF0008B00D002048DF000827
:1008B00000DF00083F01FF8009DF00084001FF80E2
:1008C00014DF00083D01FF8008B501F02BFC00F0AB
:1008D000AFFE01F019FC01F025FC024B01221A6069
:1008E00008BD00BF640C002000207047036801228F
:1008F0001B6900211847036800221B69114618472D
:1009000003681B69184703689B69184703689B6A5B
:10091000184700290CBF6FF0180000207047012015
:1009200070471120704770476FF01C0070476FF0E0
:100930001500704701207047002070477047000085
:10094000F8B5074E15460C468F18BC4205D014F872
:10095000011B304600F032FEF7E72846F8BD00BF25
:10096000040E002038B58DB215F0010405D00848FA
:1009700000F036FC041C18BF0124EB0605D5044822
:1009800000F044FC08B144F01004204638BD00BF1C
:10099000040E002010B5044603F0ACFA204610BD4A
:1009A00010B50C462AB1044800F0F6FD2070012075
:1009B00010BD104610BD00BF040E002038B51D4606
:1009C000074B0360074B1B68044633B9064800F029
:1009D00079FC2946044800F04FFC204638BD00BF92
:1009E000F8E000088C0C0020040E00200020704766
:1009F0000020704708B5012000F096F90C4A1368F2
:100A000010B51844EFF30881884205D3094B0C2236
:100A10001A604FF0FF3010BD07490C6824B1074938
:100A2000096821448842F1D21060184610BD00BF09
:100A30009C020020580F0020840C0020880C00200D
:100A40000120704701207047002103F0C9BC7047A6
:100A5000704708B5FFF7FBFF08BD08B5FFF7F8FFC3
:100A600008BD000008B5037803F00302012A0BD08B
:100A70002AB140F28C520549054802F053F943F07F
:100A800002030370012008BD002008BD40E10008FA
:100A90008DE1000808B5037803F00302022A05D0AF
:100AA00040F294520449054802F03CF923F0030354
:100AB00043F00103037008BD40E10008B3E1000802
:100AC0003F2870B504462FDC184D55F820305A1CCD
:100AD00013D1022811DCFFF78BFF034658B92046DB
:100AE000FFF784FF034630B9114E3378BFF35B8FB5
:100AF000DB0704D50F4B45F82430184670BD30464F
:100B0000FFF7B0FF0028F5D04FF41653032202215F
:100B10000848FFF753FF3046FFF7BCFF064A074976
:100B20000448FFF78DFFE5E70023E6E79C0100207E
:100B3000680C0020800C0020980100203D0900086E
:100B400038B50546FFF7BCFF0B4B002443F82540A2
:100B500030B902F083FB092303604FF0FF3038BD4A
:100B600003685B699847051E04DA02F077FB6D4263
:100B70000560F2E7204638BD9C010020FFF7E0BF8A
:100B800038B50C461546FFF79BFF38B902F066FBF7
:100B9000092303604FF0FF34204638BD0368214627
:100BA000DB682A469847041EF6DA02F057FB6442D7
:100BB0000460EFE708B5131E06DA02F04FFB1623B8
:100BC00003604FF0FF3008BD04D0FFF7D9FF40EAC3
:100BD000E07008BD184608BD38B50C461546FFF74D
:100BE0006FFF38B902F03AFB092303604FF0FF347E
:100BF000204638BD036821469B682A469847041E54
:100C0000F6DA02F02BFB64420460EFE7002A08B535
:100C100003DBBDE80840FFF7DFBF02F01FFB162330
:100C200003604FF0FF3008BD10B5FFF749FF0446E1
:100C300028B902F013FB09230360204610BD0368A6
:100C4000DB699847041EF8DA02F008FB644204608E
:100C50000024F2E71FB504220C4640230DEB0201ED
:100C600001900DF109008DF8083003F0C7F9214615
:100C700002A802F03DFD044630B10198FFF7D4FF11
:100C800010B12046FFF7E0FE204604B010BDFFF78C
:100C9000CBBF38B50C461546FFF712FF38B902F046
:100CA000DDFA092303604FF0FF34204638BD0368A6
:100CB00021461B692A469847041EF6DA02F0CEFA4E
:100CC00064420460EFE7FFF7E4BF10B5FFF7F8FEFA
:100CD00030B902F0C3FA092303604FF0FF3010BDB2
:100CE00003689B699847041E04DA02F0B7FA64426D
:100CF0000460F2E7002010BD0A4C08B523680546E1
:100D0000986802F0BBFB2368D86802F0B7FB0120AB
:100D1000FFF7DBFF0220FFF7D8FF0DB1FFF7AEFCB6
:100D2000FEE700BFD006002008B5FFF7E5FF38B5A5
:100D30000D46FFF7C5FE044630B902F08FFA0923CD
:100D400003604FF0FF3038BD0368DB699847002827
:100D500014BF4FF400534FF400436B6023682046E8
:100D60009B6A98472861002038BDFFF7E0BF03F079
:100D7000C1B8000008B5034653F8082B02B9036058
:100D800002689A4204D068220249034801F0CAFF6F
:100D9000184608BD85E00008DAE0000810B50446F2
:100DA0000948FFF7E7FF0023084A194652F82300D5
:100DB000A04208BF42F823100133402BF6D102486D
:100DC000FFF7D8FF10BD00BF700C00209C01002071
:100DD00010B50F48FFF7CEFF0E4B032453F8242025
:100DE0006AB10134402CF9D102F038FA18230360BB
:100DF0000748FFF7BFFF4FF0FF34204610BD4FF00C
:100E0000FF32034843F82420FFF7B4FFF5E700BFA3
:100E1000700C00209C01002010B50446FFF7D8FF9D
:100E20000028A4BF014B43F8204010BD9C010020C6
:100E300070B506460C46FFF7EFFF054690B1214618
:100E4000FFF708FF044630B9074B53F825209642B8
:100E500003D143F82500204670BD02F0FFF90923B5
:100E60000360F8E70446F6E79C0100200EB42DE984
:100E7000F04185B00546FFF7ABFF041E13DB0023EE
:100E8000294602A8019301F025FE02A801F072FE96
:100E90001B4D064668B902F0E1F91323036045F8DB
:100EA00024604FF0FF34204605B0BDE8F04103B0A8
:100EB000704702A801F04CFE074602A837B101F0C6
:100EC00050FE0190019B45F82430ECE701F037FE1D
:100ED00006460028DFD0036802A8D3F8088001F096
:100EE00023FE0B9B024601A93046C0470646002858
:100EF000E8D002F0B3F97642066045F82470D0E7F6
:100F00009C01002073B50E461849054603F03CFBD2
:100F1000044620B9FFF7D4FD204602B070BD144945
:100F2000284603F031FB20B90120FFF7C9FD012459
:100F3000F2E71049284603F027FB20B90220FFF70B
:100F4000BFFD0224E8E72B78402B07D10422691C5F
:100F50000DEB020003F052F8019CDDE726F400419E
:100F60002846FFF783FF0446D6E700BFFAE10008F2
:100F700001E20008F2E1000870477047074B08499A
:100F80009A68084810B5043A52F8044F41F8044FE3
:100F90008142F9D14FF000529A6010BD00ED00E09F
:100FA000FCFFFF1F9001002008B5FFF7E7FFFFF7E8
:100FB0008BFCFFF7E2FF08BD08B5FFF7DDFFBDE8DA
:100FC0000840FFF7B1B930B5C36891FAA1F4B4FA9B
:100FD00084F491FAA1F10325B1FA81F1640005FAD4
:100FE00004F4490023EA040302FA01F11943C16041
:100FF00030BD012A02D0022A18BF0022FFF7E3BF4A
:101000002DE9F0410E46411C04D1424942483E229E
:1010100001F088FE00F00F08404BC0F3031053F8B6
:101020002840FFF763FA06F00705836894FAA4F1F5
:10103000B1FA81F194FAA4F20327490007FA01F109
:10104000B2FA82F223EA01035200022101FA02F20B
:1010500013438360BD4258D8DFE805F01D1D021D13
:10106000B8F1070FC6F3032739D9426A230A93FA66
:10107000A3F1B1FA81F193FAA3F34FF00F0EB3FA93
:1010800083F389000EFA01F19B0022EA010207FABC
:1010900003F313434362026894FAA4F1B1FA81F1B5
:1010A00094FAA4F30327B3FA83F3490007FA01F192
:1010B0005B0005FA03F322EA0102013D1343012D0F
:1010C000036005D8436832074CBF2343A343436002
:1010D000C6F301122146BDE8F041FFF78ABF026A5C
:1010E00094FAA4F3B3FA83F394FAA4F14FF00F0E39
:1010F000B1FA81F19B000EFA03F3890022EA0302A0
:1011000007FA01F313430362C5E767220149044864
:101110007EE700BF4CE20008A9DE00080CE20008F0
:10112000D9E50008431C70B50D4604D188221F493B
:101130001F4801F0F7FD00F00F021E4BC0F3031033
:1011400053F82240FFF7D2F9066894FAA4F1B1FAF5
:1011500081F394FAA4F259000323B2FA82F28B408D
:1011600033405200D340013B012B05D8EB1E022B2C
:10117000436809D823434360032D08D10122214647
:10118000BDE87040FFF735BF23EA04034360012D3B
:10119000F4D0052D01D0022D01D10222EFE7214626
:1011A0000022BDE87040FFF70EBF00BF4CE2000810
:1011B000A9DE00080CE200080FB407B5064B07498A
:1011C0001B6805AAD868019204F0A6FD03B05DF87B
:1011D00004EB04B0704700BFD00600209AE200087C
:1011E0004368094A9B0182B0D3581A68120706D592
:1011F000002201921A6801925A680192019A1868B5
:10120000C0F3401002B07047500E00204368034AFC
:101210009B01D3581868C0F3C0107047500E0020CF
:1012200042681449920110B40468545053188268FB
:101230005A60C2689A600269DA6042691A61026A99
:101240009A610022DA84DA619A84DA859A85B0F9A3
:101250001A20013206D108225A6118465DF8044B63
:1012600000F06BBEB0F9182001320CBF04220C2232
:10127000F2E700BF500E002010B581600C46FFF76A
:10128000CFFF28B121460348BDE81040FFF794BFC7
:1012900010BD00BF9AE20008094B98420BD0A3F59D
:1012A0004C43984209D003F5504398420CBF0220AA
:1012B0004FF0FF307047002070470120704700BF9B
:1012C00000100140F0B50E4685B004464449304652
:1012D000154601F0FDF943490746284601F0F8F9A3
:1012E0000146384601F0D0F92060013004D13E4972
:1012F0003E483D2201F016FD022E0AD0032D08D0F3
:101300003749022001F0E4F987421DD1384801F045
:101310003DFE0127374B206898424FF0000315D15E
:101320000193354B5A6C42F010025A645B6C03F027
:1013300010030193019BFFF7AFFF0028606023DAE1
:10134000A42229492D48D5E70027E3E72C4A9042FB
:101350000BD10293284B1A6C42F400321A641B6CB6
:1013600003F400330293029BE5E7264A9042E2D160
:101370000393214B5A6C42F020025A645B6C03F0D9
:1013800020030393039BD6E71549304601F058F933
:101390001449284601F054F9721C03D0012130464B
:1013A000FFF7C0FE6B1C03D001212846FFF7BAFEF1
:1013B0004FF41653A3600023E3602361636123624B
:1013C000268365832046FFF72BFF3FB10E4B0F4866
:1013D00001221A6021464C2202F010FE05B0F0BD39
:1013E000F0DD0008A8DD0008C4E2000816E30008EC
:1013F00032E30008001001400038024067E30008B3
:1014000000440040001401408C0C0020040E002019
:10141000002808DB4209012300F01F0003FA00F056
:10142000014B43F82200704700E100E000280DDB8B
:101430004309012200F01F0002FA00F02033044AA1
:1014400042F82300BFF34F8FBFF36F8F704700BF89
:1014500000E100E0F7B5FFF71FFF071E26DB144E83
:1014600056F8270010B3134CBD0163591A681206D1
:1014700006D5DB68190603D50F4B01211B68984779
:1014800063591A68920608D5DB68980605D50A4B99
:1014900056F827001B680021984763591A681107FE
:1014A00004D55A69D20744BF5B68019303B0F0BD0D
:1014B000940C0020500E0020900C00200148FFF7F3
:1014C000C9BF00BF001401400148FFF7C3BF00BF00
:1014D000004400400148FFF7BDBF00BF00100140BD
:1014E000034B19604168034B43F82120704700BF4C
:1014F000900C0020940C002009C830B4204CA0426D
:101500000AD004F58064A0421AD0A4F55044A04249
:1015100019D11C4C262001E01B4C25201B4D9B01A2
:10152000BAB1EA58D36889B943F02003D360184BA5
:1015300000F110029B6843F8224030BCFFF768BFFF
:10154000144C4720EAE700242046E7E743F08003F5
:10155000ECE7EB58DA6849B922F02002DA60DB6880
:1015600013F0800F09D130BCFFF760BF22F080027A
:10157000DA60DB6813F0200FF4E730BC704700BF7F
:1015800000100140C9140008D5140008500E0020B6
:1015900000ED00E0BD14000838B544680546284653
:1015A000FFF71EFE0028FAD0A401034B1B59586810
:1015B000C0F3080038BD00BF500E002070B545686C
:1015C00006460C463046FFF721FE0028FAD0AD0152
:1015D000024B5B59C4F308045C6070BD500E0020E0
:1015E000DFF830D0002103E00B4B5B58435004314F
:1015F0000A480B4B42189A42F6D30A4A02E00023EB
:1016000042F8043B084B9A42F9D300F0D9FCFEF7AC
:10161000EFFD704700800120B4EE00089801002023
:10162000600B0020600B0020600F0020FEE7704779
:1016300008B50B4B1A6842F400721A601A6842F43B
:1016400080621A601A6842F480721A60032000F007
:1016500009F80F20FEF7F4FFFFF7E9FF002008BDAF
:10166000003C0240074AD36823F4E0631B041B0CD0
:1016700043F0BF63000243F4003300F4E06003432F
:10168000D360704700ED00E02DE9F341044618B93E
:10169000012002B0BDE8F0810368DD0710D42368A3
:1016A000980758D423681A0700F19A8023685B07CB
:1016B00000F1B880A269002A40F019810020E8E713
:1016C000A64B9A6802F00C02042A07D09A6802F02E
:1016D0000C02082A0AD15B68590207D59F4B1B6888
:1016E0009A03DCD56368002BD9D1D1E763689B4DA1
:1016F000B3F5803F11D12B6843F480332B60FEF7A4
:10170000A5FF964D06462B689B03C8D4FEF79EFFA7
:10171000801B6428F7D90320BBE7B3F5A02F04D1C1
:101720002B6843F480232B60E5E72A6822F480329B
:101730002A602A6822F480222A60002BDFD1FEF77B
:1017400085FF06462B689F03A9D5FEF77FFF801B08
:101750006428F7D9DFE7814B9A6812F00C0F07D0A5
:101760009A6802F00C02082A11D15B685E020ED45E
:101770007A4B1A68950702D5E268012A88D11A685F
:10178000216922F0F80242EAC1021A608AE7E2689F
:10179000734BB2B101221A60FEF758FF6F4D064637
:1017A0002B68980707D52B68226923F0F80343EAD2
:1017B000C2032B6076E7FEF749FF801B0228EFD9B2
:1017C000A9E71A60FEF742FF644D06462B689907A9
:1017D0007FF568AFFEF73AFF801B0228F6D99AE73B
:1017E0006269604B7AB101221A60FEF72FFF5B4DF0
:1017F00006466B6F9F073FF559AFFEF727FF801B2B
:101800000228F6D987E71A60FEF720FF534D0646F7
:101810006B6F98077FF54AAFFEF718FF801B022811
:10182000F6D978E74D4B1A6C12F0805228D101920C
:101830001A6C42F080521A641B6C03F080530193BF
:10184000019B0126484D2B68D9051BD5A368434D44
:10185000012B27D12B6F43F001032B67FEF7F6FE18
:101860003E4D074641F288382B6F9B0739D5002E35
:101870003FF420AF394A136C23F08053136419E707
:101880000026DFE72B6843F480732B60FEF7DEFE53
:1018900007462B68DA05D9D4FEF7D8FEC01B02280C
:1018A000F7D938E7052B04D12B6F43F004032B67DE
:1018B000D0E72A6F22F001022A672A6F22F0040281
:1018C0002A67002BCAD1FEF7C1FE41F288380746CD
:1018D0002B6F9807CBD5FEF7B9FEC01B4045F7D953
:1018E00019E7FEF7B3FEC01B4045BDD913E71B4DFA
:1018F000AB6803F00C03082B3FF4CAAE1B4E002369
:10190000022A336034D1FEF7A1FE07462B68990105
:101910001ED4226AE3691343626A43EA8213E26ACD
:1019200043EA0263A26A0D4C5208013A43EA0243B9
:101930006B6001233360FEF789FE054623689A0138
:101940003FF5BCAEFEF782FE401B0228F6D9E2E668
:10195000FEF77CFEC01B0228D8D9DCE60038024026
:1019600000004742800E474200700040600047423E
:10197000FEF76CFE04462B689B017FF59FAEFEF7D9
:1019800065FE001B0228F6D9C5E600BF134908B55D
:101990008B6803F00C03042B03D0082B03D01048F2
:1019A00008BD104808BD4A684B68496813F48003B5
:1019B00014BF0C480A48C1F3881118BF002302F075
:1019C0003F02A1FB00010BF0C7F8044B5B68C3F3B7
:1019D000014301335B00B0FBF3F008BD0038024067
:1019E0000024F40000127A002DE9F0410D4604466F
:1019F00010B90120BDE8F081444B1A6802F00F02D3
:101A00008A4228D321688F072DD4C80740D43F4B82
:101A10001A6802F00F02954266D3226851076CD40F
:101A2000130707D53A4A2169936823F4604343EAD0
:101A3000C1039360FFF7AAFF354B364A9B68C3F397
:101A40000313D35CD840344B18600F20FEF7F8FD29
:101A50000020BDE8F081CAB21A701B6803F00F03C2
:101A60009942C6D1CEE72A4B11F0040F1EBF9A68E7
:101A700042F4E0529A600E0742BF9A6842F4604214
:101A80009A609A68A06822F0F00202439A60BCE76C
:101A900062681F4B012A1DD11B6813F4003FA8D0B8
:101AA0001B4EB36823F003031343B360FEF7CEFD70
:101AB00041F288380746B368626803F00C03B3EB61
:101AC000820FA4D0FEF7C2FDC01B4045F3D903200E
:101AD000BDE8F081911E01291B6802D813F0007F38
:101AE000DDE713F0020FDAE7EAB21A701B6803F0C1
:101AF0000F039D427FF47DAF8FE70549E0688B6857
:101B000023F4E05303438B608AE700BF003C0240AC
:101B1000003802408DE30008A0020020044B054A73
:101B20009B68C3F38223D35C034A1068D840704794
:101B3000003802409DE30008A0020020044B054A43
:101B40009B68C3F34233D35C034A1068D8407047A4
:101B5000003802409DE30008A00200200F2303602C
:101B60000B4B9A6802F0030242609A6802F0F0029E
:101B700082609A6802F4E052C2609B68DB0803F45A
:101B8000E0530361034B1B6803F00F030B607047C6
:101B900000380240003C024070470000224A0368BF
:101BA00090420ED0B0F1804F0BD0A2F57C42904213
:101BB00007D002F58062904203D002F58062904225
:101BC00019D14A6823F070031343174A904204D195
:101BD000CA6823F44073134318E0B0F1804FF7D084
:101BE000124A9042F4D002F580629042F0D002F5A1
:101BF00080629042ECD00E4A9042E9D002F58062B9
:101C00009042E5D002F580629042E1D003608B689B
:101C1000C3620B688362044B984204BF0B69036381
:101C200001234361704700BF0000014000040040F1
:101C30000040014010B50446A0B190F8393003F0DF
:101C4000FF021BB980F83820FFF7A6FF022384F8B3
:101C500039302068211DFFF7A1FF012384F83930B6
:101C6000002010BD012010BD036A10B501248C4076
:101C700023EA04030362036A8A401A43026210BD26
:101C800010B5044600220068FFF7EEFF2368104AF3
:101C900093420DD1196A41F21112114208D1196A09
:101CA00040F24442114202BF5A6C22F400425A648C
:101CB000196A41F21112114208D1196A40F24442E4
:101CC000114202BF1A6822F001021A60002010BD02
:101CD0000000014010B5044601220068FFF7C4FF70
:101CE0002368064A934202BF5A6C42F400425A6487
:101CF0001A6842F001021A60002010BD0000014085
:101D0000FFF7E8BF2DE9F0470668C2683369C1698B
:101D100023F4405313433361044683680069F26837
:101D20000343606922F41642034322F00C020B4382
:101D30001343F3607369A26923F440731343B1F54D
:101D4000004F73617A4B7CD19E4203D003F58063D0
:101D50009E4244D1FFF7F2FE192505FB00F36068AF
:101D60004FF064094000B3FBF0F3B3FBF9F34FEA23
:101D70000318FFF7E3FE636868435B00B0FBF3F70B
:101D8000FFF7DCFE636868435B00B0FBF3F3B3FB73
:101D9000F9F309FB1373DB003233B3FBF9F35B0098
:101DA00003F4F877FFF7CAFE626868435200B0FB9D
:101DB000F2FAFFF7C3FE636868435B00B0FBF3F31E
:101DC000B3FBF9F309FB13A3DB003233B3FBF9F3E5
:101DD00003F0070343443B44B360BDE8F087FFF7DB
:101DE0009DFE192505FB00F360684FF06409400073
:101DF000B3FBF0F3B3FBF9F34FEA0318FFF78EFEE2
:101E0000636868435B00B0FBF3F7FFF787FE636826
:101E100068435B00B0FBF3F3B3FBF9F309FB137307
:101E2000DB003233B3FBF9F35B0003F4F877FFF721
:101E300075FE626868435200B0FBF2FAFFF76EFE6F
:101E4000B9E79E4202D03B4B9E4240D1FFF776FE5F
:101E5000676819254FF0640905FB00F3BF00B3FB69
:101E6000F7F3B3FBF9F31F01FFF768FE63686843FC
:101E70009B00B0FBF3F8FFF761FE636868439B00CB
:101E8000B0FBF3F3B3FBF9F309FB13831B0132330C
:101E9000B3FBF9F303F0F008FFF750FE6268684304
:101EA0009200B0FBF2FAFFF749FE636868439B00BB
:101EB000B0FBF3F3B3FBF9F309FB13A31B013233BC
:101EC000B3FBF9F303F00F0343EA080383E7FFF7DB
:101ED00025FE676819254FF0640905FB00F3BF0074
:101EE000B3FBF7F3B3FBF9F31F01FFF717FE6368CA
:101EF00068439B00B0FBF3F8FFF710FE636868438C
:101F00009B00B0FBF3F3B3FBF9F309FB13831B0155
:101F10003233B3FBF9F303F0F008FFF7FFFD62681B
:101F200068439200B0FBF2FAFFF7F8FDBDE700BF8F
:101F30000010014000140140704710B5044640B342
:101F400090F8393003F0FF021BB980F83820FFF712
:101F5000F3FF2268242384F83930D36823F4005334
:101F6000D3602046FFF7CEFE23681A6922F4904220
:101F70001A615A6922F02A025A61DA6842F4005260
:101F8000DA6000202023E06384F8393084F83A30A6
:101F900010BD012010BD7FB50F2301930221002346
:101FA0004FF4805201A80291039304920593FFF726
:101FB0001BFDB0FA80F0400907B05DF804FB00009B
:101FC0000F49D1F8883043F47003C1F888300D4BC5
:101FD0001A68002042F001021A6098601A6822F024
:101FE000847222F480321A60074A5A601A6822F416
:101FF00080221A60D8604FF000638B60704700BF8A
:1020000000ED00E0003802401030002400B58FB031
:102010001D4B002100911A6C42F080521A641B6C17
:102020001A4A03F080530093009B0191136823F434
:10203000404343F400431360136803F440430193A7
:10204000019B01230293C8B94FF480330393022309
:1020500008934FF48003099308230A934FF4A8735D
:102060000B9304230C9302A807230D93FFF70CFB9B
:1020700038B9FFF790FF0FB05DF804FB4FF4A023D1
:10208000E4E70020F7E700BF00380240007000409E
:1020900010B58EB000241A4B00941A6C42F0805296
:1020A0001A641B6C174A03F080530093009B019441
:1020B000136823F4404343F400431360136803940C
:1020C00003F440430193019B0994032302930123EA
:1020D0000593102306930A934FF4A8730B930423DC
:1020E00002220C9302A8072308920D93FFF7CCFA63
:1020F00018B9FFF750FF0EB010BD2046FBE700BF38
:10210000003802400070004008B50120FFF77EFF54
:1021100028B9FFF7BDFF10B9014800F037FF08BD2F
:1021200079E30008174A1849936803F00C03042B5D
:1021300010B50DD0082B0DD0144B0B60114B144A69
:102140009B68C3F30313D25C0B68D3400B6010BDD4
:10215000104BF2E75468506852686302C2F3881269
:1021600000F03F004CBF0B4B084BB3FBF0F3534365
:10217000044A5268C2F3014201325200B3FBF2F347
:10218000DBE700BF00380240A00200200024F4007A
:102190008DE3000800127A00074B084A13601A69A1
:1021A000910707D5DA68920704D56FF002021A6129
:1021B00000F07EBC704700BF000C0040140F0020F0
:1021C00000487047A8E3000830B589B001A903A80A
:1021D000FFF7C4FCFFF7A2FC002302931E4B019003
:1021E0001A6C1E4C42F008021A641A6C02F00802C3
:1021F0000292029A1A6A42F008021A621A6A22F0DD
:1022000008021A62069AA3F50B3323604FF0FF33DE
:10221000E360134BF2B9B0FBF3F0013800256060C6
:102220000E482561A5606561FFF704FD0D4B0E4A60
:102230009B680A48C3F808210C4B4FF480225A606F
:102240002946FFF75DFD2268D36823F00203D360BF
:1022500009B030BD4000DEE700380240140F002016
:1022600040420F0000ED00E09921000800E100E08D
:1022700004480268D36823F00203D3600021FFF70B
:102280003FBD00BF140F0020014B586A704700BFCC
:10229000000C0040054B1B686FF0020258631A6186
:1022A000DA6842F00202DA60704700BF140F0020C3
:1022B000064B1B686FF002021A615A6942F0020273
:1022C0005A61DA6842F00202DA607047140F0020A7
:1022D000034B1A68D36823F00203D360704700BF32
:1022E000140F0020024B1B686FF002021A61704746
:1022F000140F002008B500210348FFF7C1FCBDE81A
:102300000840FFF7E5BF00BF140F00207047A0F1A1
:10231000B000FFF7FBBFA0F1B000FFF7F7BF00F080
:1023200059B8A0F1B000FFF7FABF00F056B8A0F11D
:10233000B000FFF7FABF000038B504461D46049B05
:1023400000F074F8294604F1B00000F073FC064B6D
:1023500003F10802226003F128028833C4F8B02098
:10236000C4F8B430204638BDB0E300087047704769
:1023700010B4446800F108010EC95CB103F001001B
:1023800002B938B15B1008B1E0588258E0185DF826
:10239000044B10475DF8044B7047000000EB01133D
:1023A0008C33DA6810B57AB100EB0110D0F89820C0
:1023B0002AB940F23A220549054800F0B3FC1268F8
:1023C0001846BDE81040104710BD00BF40E40008AB
:1023D00091E400084030FFF7DFB810B540300C46FC
:1023E000FFF7ECF8204610BDC36810B504460BB1EA
:1023F0009B689847204610BDC36810B504460BB1D2
:102400009B689847204610BD884238B504460D4663
:102410000AD0FFF7F1FF3CB1EB681BB15B682946BE
:1024200020469847EB68E360204638BD2DE9F04F21
:1024300004469B462D4B036000252D4BA06085B0C4
:10244000436089469246C5600561456185610577AF
:10245000457729461022203001F0CEFE04F14006D7
:102460002946102204F1300001F0C6FE04F18C0868
:1024700029464C22304601F0BFFE04F19C07294654
:102480001022404601F0B8FE29461022384601F0DD
:10249000B3FE10222946C4F8ACB0684601F0ACFE89
:1024A00069464046FFF7B0FF6846FFF7A5FF1022D8
:1024B0002946684601F0A0FE69463846FFF7A4FFAA
:1024C0006846FFF799FF524649463046FEF7FAFE46
:1024D000D4F8AC103046FEF7CFFE30462246054910
:1024E000FEF7FEFF204605B0BDE8F08FA0E400082F
:1024F000712300089D2300082DE9FF410646884608
:1025000056F8403B17461B6805463C01984700F0CB
:1025100025FCD8F80C308C342C44ABB1E3680BB9F3
:1025200000F06CFD41462046FFF76EFF0122394660
:102530003046FEF7E1FF00F027FC2B6828465B6879
:10254000984704B0BDE8F081E3680BB100F078FD76
:1025500010220021684601F04FFE69462046FFF731
:1025600053FF6846FFF748FF0022E0E77FB51B4BAB
:102570000360044610220021684601F03DFE00225F
:1025800069462046FFF7B8FF6846FFF735FF10227F
:102590000021684601F030FE012269462046FFF71F
:1025A000ABFF6846FFF728FF14F18C0608D004F152
:1025B000AC05B54204D0103D2846FFF71DFFF8E7F3
:1025C00004F13000FFF710FF04F12000FFF70CFFCB
:1025D000A06900F077FA204604B070BDA0E40008BE
:1025E00010B50446FFF7C2FF2046FEF7C0FB2046A9
:1025F00010BD38B504460D4603685AB182681360B1
:1026000020460121FEF714F829462046BDE838404F
:10261000FEF70AB8C2681B04F1E770B50E4604461F
:102620001546FDF7E1FF013606D02A462046002177
:10263000BDE87040FFF7DDBF70BD0022FFF7EDBFC2
:1026400013B5044601300FD102B010BD9C420AD12F
:1026500020468968FEF7D4FC0021204602B0BDE880
:102660001040FEF75FBD0C31B1F900305A1CEDD1BE
:102670000023009322460249024800F0A7FC00BF55
:10268000E1E4000830010180884207B502460AD023
:10269000431C08D0013105D00023009304490548AC
:1026A00000F094FC0146084603B05DF804FB00BF4F
:1026B000B0E4000830010180B1F900305A1C01D1AA
:1026C00018467047834201D1486870470C31F3E7E0
:1026D000431C07B50AD0FFF7EFFF431C06D10023C8
:1026E000024600930349044800F070FC03B05DF813
:1026F00004FB00BFC1E40008300101802DE9F74F61
:10270000D0F804A09AF83A300446002B46D103686A
:102710005B68984763681B6A98423FD0DAF82030BC
:10272000DAF80840CAF82000A0EB0308DAF80C3009
:10273000314808EA0308844246464FF0000727D094
:10274000DAE90A239AF83BB0A8FB0089CDE9002317
:102750000025BBF1000F2BD05A464046494609F0F0
:10276000F9FCDDE9002312EB080243EB0903904674
:102770005A46994606460F4609F0F8FCB8EB0000A9
:1027800069EB0101A94208BFA0420AD2CAE90A01C5
:10279000DAE90C23B6185F41CAE90C6703B0BDE85B
:1027A000F08F013647F10007001B61EB0501EDE7F3
:1027B00022462B46404649460AF0CEF922460646B6
:1027C0000F46404649462B460AF0C6F9DDE9008926
:1027D00018EB020849EB0309A94508BFA04502D23E
:1027E000CAE90A89D4E7013647F10007B8EB0408C3
:1027F00069EB0509F4E700BF40420F00824206D9A9
:102800008A420BD9884294BF002001207047884239
:1028100006D98A428CBF00200120704701207047F2
:10282000002070472DE9F14F476897F83A30064687
:10283000002B60D197F83930002B5CD1FFF75EFF99
:1028400075686B68002B59D0D5E90C89D3E9000174
:10285000894508BF804505D333685B6901B0BDE891
:10286000F04F1847D5E90623B0EB080861EB0909DA
:102870004B4508BF42452C6906D3AB68254A9342B5
:102880000FD1444528BF44462A6A3B6A1444EA688B
:102890001440A34221D14FF484721F491F4800F015
:1028A00041FA95F83B20DFF878A04FF0000B7AB1A1
:1028B0004046494609F05AFC10EB0A0041EB0B0177
:1028C000144A00230AF048F9844228BF0446DBE793
:1028D000A3FB080103FB0911EEE7336820461B69DF
:1028E000984733685B68984722460146386AFFF785
:1028F00085FF0028B0D101B0BDE8F08F3B69386A90
:10290000FA68184433681B69104001B0BDE8F04F05
:10291000184700BF40420F00F2E400083AE5000803
:102920003F420F002DE9F04F436893F8382085B0FF
:102930000546002A66D193F83A30002B62D103682D
:102940001B6898472B68DB699847076827B92D22D1
:102950002E492F4800F0E6F91F23012202FA03F165
:102960008F425FFA83FB02D0013BF7D19B46D0F840
:1029700004A0AAF104031C2B01D93B22E8E7072697
:1029800017F1FF3006FA03F6224C4FF0000343F133
:10299000FF313A46C4FB06010AF0DEF86C682A688B
:1029A00000232360636052680393CDE900019047E0
:1029B00020626C684FF000084FF000095246C4E9ED
:1029C0000A89A76084F83BB00120002109F0CEFB02
:1029D000DDE90023C4E90623039B84F8393084F839
:1029E0003A3001380123E06026612846C4E90C89A9
:1029F00084F83830FFF782FE284605B0BDE8F04F76
:102A0000FFF710BF05B0BDE8F08F00BFF2E400088B
:102A1000D9E5000840420F0070B5044600F09EF969
:102A20002368DB689847636893F83A201AB1BDE8D9
:102A3000704000F0A9B9012283F8392063685B680F
:102A4000A3B12046FFF75AFE65686E68D5E90C0110
:102A5000D6E90023994208BF904207D3F3686B6020
:102A60002B68002BEAD0B0689847E7E7636800223C
:102A700083F839202046FFF7D5FED8E738B504465D
:102A8000FFF750FF00F06AF92046FFF737FE636852
:102A9000D3E90C4500F078F92046294638BD08B541
:102AA000FFF7ECFF08BD00000048704760E5000834
:102AB000024B1B680BB1024818477047A402002064
:102AC00060E50008024B1B6803B11847704700BF60
:102AD000E00C002070B50E460025044605604560F8
:102AE0000E49304601F0E8FE304420602946236854
:102AF0001A782F2A07D10133236051B92A220849B5
:102B0000084800F00FF9002AF7D0013301312360A3
:102B1000EDE700F055FB6060204670BD88E50008D9
:102B20008AE50008D2E5000800687047406808B5EB
:102B300020B100F0EDFA431E5842584108BD10B5CF
:102B40000446FFF7F3FF10B1606800B1043810BD10
:102B5000406808B520B100F0DBFAB0FA80F0400917
:102B600008BD10B50446FFF7F3FF10B1606800B16F
:102B7000043810BD4068003018BF012070470020A5
:102B8000704770477047F8B503681B6D0E460446E2
:102B90008F1898473546BD4207D0236815F8011BAA
:102BA0009B6C204698470130F5D1236820465B6D29
:102BB0009847A81BF8BDF8B503681B6D0E46044680
:102BC0008F1898473546BD4208D023682046DB6CF5
:102BD0009847431C02D005F8010BF4E72368204610
:102BE0005B6D9847A81BF8BD002070477047002018
:102BF000704700207047000010B5054B036050334C
:102C0000044640F8043F00F0A3FA204610BD00BF80
:102C1000E4E50008A0F10400EEE700BF10B50446AB
:102C2000FFF7EAFF2046FEF7A2F8204610BDA0F10C
:102C30000400F3E70F4B13B50022044640F8043BB1
:102C400000F068FA0C4B236060336360002363611B
:102C50000A492046FEF7ECF80346606128B9009067
:102C600002460749074800F0B1F9FDF7EDFE20469E
:102C700002B010BDB4E900085CE600083CE60008BC
:102C80003FE600081901018010B5074B03F1080267
:102C90006833044602604360406900F027FB204629
:102CA000FFF7AAFF204610BD54E600080EB477B522
:102CB000036807AD044655F8046B1B6D9847012265
:102CC00000216069019500F01DFD019A606931469F
:102CD00003F022F8236805465B6D20469847284696
:102CE00003B0BDE8704003B070470EB477B5036819
:102CF00007AD044655F8046B1B6D98476069019554
:102D000000F0BCFB019A6069314603F073FF236851
:102D100005465B6D20469847284603B0BDE87040E5
:102D200003B0704707B504460D46164600F016F886
:102D300000962B4600222146014800F047F900BFCB
:102D40004401FF80EFF31080C04300F001007047A2
:102D5000EFF30580003018BF0120704710B5074C15
:102D60002368013304D1512205490648FFF7DAFFF1
:102D700000F0A2F923680133236010BDE40C0020A9
:102D8000C4E600080FE70008054B1A6832B11A685C
:102D9000013A1A601B680BB900F0A0B9704700BF78
:102DA000E40C00200122D0E84F3FC0E8412F002969
:102DB000F9D1D8B2003018BF01207047D0E85F3F8A
:102DC0000B449BB2C0E8523F002AF7D11846704727
:102DD000D0E85F3F5B1A9BB2C0E8523F002AF7D1B0
:102DE0001846704708B50B48FFF7DCFF28B1FFF71E
:102DF000B5FFBFF34F8F20BFFDE7FFF7A9FF08B175
:102E0000FDF73CFCFFF79EFF0028F9D00120FDF7FD
:102E10008BFF00BF280D002070B5164C8EB034EA31
:102E2000200428BF04460D4616460021342201A87E
:102E300001F0E2F9019402960395FFF78FFF0E4A25
:102E400013680133012B136004D1342201A90B480C
:102E500001F0D4F8342201A9094801F0CFF8094B58
:102E60001B680BB106489847FFF78EFF00200EB095
:102E700070BD00BF0101FF80E80C0020F40C0020B1
:102E80002C0D0020EC0C00202DE9F0412E4C0E46BC
:102E90002168C1F34173032B0CBF4D428DB2C1F3C6
:102EA00007438046174629482A46FDF741FC6FF440
:102EB00098731D44132D0FD8DFE805F00A2D303329
:102EC000363C393F0E0E0E0E0E0E0E0E0E0E0E423C
:102ED000A1681F48FDF72CFC4046FDF7FFFB616829
:102EE0001C48FDF725FC4EB11B48FDF7F7FB3046AB
:102EF000FDF7F4FB39461948FDF71AFCA16818489C
:102F0000FDF716FC21681748FDF712FC1648BDE8CE
:102F1000F041FDF70DBCA1681448DBE7A168144837
:102F2000D8E7A1681348D5E7A1681348D2E7A1689C
:102F30001248CFE7A1681248CCE7A1681148C9E759
:102F40001148FDF7F5FBC7E72C0D002055E70008F9
:102F5000A6E700084EE800085FE8000867E80008F8
:102F60006BE800087FE80008CBE80008BCE7000831
:102F7000CCE70008DBE70008EEE7000802E80008FD
:102F800016E8000825E800083BE800080FB407B57C
:102F90000B487546FFF706FF044670B901462A46FE
:102FA0000848FFF739FF214607482246FFF76CFF24
:102FB00005A904980191FDF7A1FBFFF713FF00BFDE
:102FC000F00C00200001FF8040E7000880B50646B5
:102FD0000948F0460C4617461D46FFF7E3FE48B980
:102FE000424639463046FFF717FF029A29462046E7
:102FF000FFF74AFFFFF7F6FEF00C002013B50D4C6B
:10300000FFF7ACFE22884FF6FF739A4208D1FFF714
:10301000BBFE00232288009307490848FFF7D6FF2C
:1030200001212046FFF7CAFE02B0BDE81040FFF7BD
:10303000ABBE00BF600D0020E5E80008230104805E
:1030400037B50B4CFFF78AFE258845B9FFF79CFE84
:10305000228800952B4607490748FFF7B7FF012153
:103060002046FFF7B5FE03B0BDE83040FFF78CBE49
:10307000600D00200AE900082401048070B50446B0
:10308000FFF712FD0646FFF70AFD05463046FFF73B
:1030900006FD401BA042F9D370BD000007EE100AE8
:1030A000DFED047A67EE277AFDEEE77A17EE900AF5
:1030B000FFF7E4BF00247449EFF31083DB4372B6DB
:1030C000044A117829B9044903F001030B70012364
:1030D00013707047630D0020620D002008B5EFF3F8
:1030E0001083DB0704D4362205490648FFF71AFE91
:1030F000054B00221A70054B1B7803B162B608BD60
:1031000028E900087AE90008630D0020620D00201C
:10311000007B704738B504460A4B036000234360C8
:103120000D46A16002730848FDF724FE45B1074B28
:103130001A6862601C600448FDF71CFE204638BD1A
:103140006560F8E7A4E90008680D0020640D002020
:1031500010B5124B036004461148FDF70BFEA3683F
:103160002BB1104A13689C4212D1636813600E4B56
:103170000B481A68944204BF00221A60FDF7FAFD5A
:10318000237B13B9201FFDF709FE204610BD13460F
:103190005A689442FBD162685A60E8E7A4E90008E3
:1031A000680D0020640D0020780D002010B5044645
:1031B000FFF7CEFF2046FDF7DAFD204610BD0000E8
:1031C00070B5064614480D46FDF7D4FD134B1C6838
:1031D0007CB1A068E8B101F041FBA84219D12A46B0
:1031E0003146A06800F0D8FE98B90B48FDF7C2FD43
:1031F0000DE0072DF9D12A463146094800F0CCFEF2
:103200000028F2D10448FDF7B5FD064B1C682046A6
:1032100070BD6468DCE700BF680D0020640D00200D
:1032200094E90008780D0020036870B51B6901223D
:10323000002104469847051E0DDB236802221B6906
:103240000021204698472368064629461B6900222C
:10325000204698473546284670BD0000014B186847
:10326000704700BFD006002000293DD070B505464C
:103270000C4608B1836B7BB3B4F90C300BB900205A
:1032800070BD2846214600F039F8E36A064633B19E
:103290002846E16998470028B8BF4FF0FF36A38958
:1032A0001B061CD4216B41B104F14003994202D0AA
:1032B000284609F023FF00232363616C21B12846CF
:1032C00009F01CFF0023636400F0CAF90023A38106
:1032D00000F0C8F9304670BD00F0BCF9CCE72846D4
:1032E000216909F00BFFDDE700207047024B014622
:1032F0001868FFF7B9BF00BFD00600208B899AB2CB
:103300002DE9F0410D46110780463CD46A6843F42C
:103310000063002AAB8165DDAE6A002E4BD09BB204
:1033200003F48052002192B2D8F80040C8F800108F
:10333000002A5BD02A6D5F0705D569682B6B521A8E
:103340000BB1EB6BD21A4046E9690023B047461C2B
:1033500056D0AB892A692A6023F400639BB200220D
:103360006A60DA04AB813BD4296BC8F8004011B322
:1033700005F14003994202D0404609F0BFFE00200B
:103380002863BDE8F0812E69AEB12C682E609107EC
:103390000CBF6B690023A41BAB600AE032462346D6
:1033A0006F6AE9694046B8470028A4EB0004064468
:1033B00004DD002CF2DC0020BDE8F081AB8943F095
:1033C0004003AB814FF0FF30BDE8F081AB892A6943
:1033D000696023F400639BB2AB81DB042A60C3D530
:1033E0002865C1E7EA6B002A96DCE4E70123404642
:1033F000E969B047431C024619D0AB89AE6A9AE727
:10340000D8F800100029E1D01D2907D0162905D0D1
:10341000AB8943F04003AB81BDE8F081AB892A69F9
:103420002A6023F400630022AB816A609CE7D8F82D
:103430000030002BE1D01D2B07D0162B05D0AB8917
:1034400043F04003AB81BDE8F081C8F80040B2E72B
:1034500010B5044682B008B1836B53B1B1F90C00CA
:1034600008B902B010BD204602B0BDE81040FFF719
:1034700045BF019100F0EEF80199EFE720B1054B4F
:1034800001461868FFF7E4BF034B0449186800F0D1
:1034900067BC00BFD006002000EA000851340008D5
:1034A000014900F05DBC00BF693200082DE9F04F12
:1034B000354B4568C3630024074600F53B7204237F
:1034C0000321C0F8E412C0F8E822C0F8E04283B05B
:1034D0002C606C60AC606C66EC812C616C61AC61E2
:1034E000AB81214605F15C00082200F085FEBE6834
:1034F000DFF898B0DFF898A0DFF89890DFF89880B0
:10350000C5F820B001230922C5F824A0C5F82890E9
:10351000C5F82C80ED612146F381B28106F15C0093
:1035200034607460B460746634617461B46108229C
:10353000019300F061FEFD68F66112200222C6F8D8
:1035400020B0C6F824A0C6F82890C6F82C802146E2
:10355000A881EA812C606C60AC606C662C616C6147
:10356000AC6105F15C00082200F046FE019BED61B4
:10357000C5F820B0C5F824A0C5F82890C5F82C805F
:10358000BB6303B0BDE8F08FA1340008E944000834
:103590000D450008454500086545000870B56823DD
:1035A0004D1E03FB05F50E4605F1740109F0A2FD61
:1035B000044640B100210C30666005F168022160CC
:1035C000A06000F019FE204670BD00BF204B70B512
:1035D0001D68AB6B064613B92846FFF767FF05F574
:1035E00038756B68AC68013B05D521E0013B5A1C7E
:1035F00004F168041CD0B4F90C20002AF6D100258F
:1036000001234FF6FF72E281A38165662560A56004
:10361000656025616561A561294604F15C000822A9
:1036200000F0EAFD256365636564A564204670BD0E
:103630002B680BB11D46D4E730460421FFF7AEFFDF
:10364000286008B10546CCE70C23336070BD00BF8D
:1036500000EA0008836B03B17047FFF727BF00BF84
:10366000704700BF704700BFF0B583B00F461146EA
:1036700001AA064604F0DCFB0546E8B13046FFF738
:10368000A5FF0446C0B139463046019A4FF4DB73BA
:1036900000F000FE00281BDB114B124F1249134AA9
:1036A000E362EB05E081A581E46127626162A262C9
:1036B00005D4204603B0F0BD002003B0F0BD304675
:1036C00021460022022300F01BF8204603B0F0BD83
:1036D0000025FFF7C5FFA581FFF7C4FF2846E9E7EE
:1036E00065450008E94400080D4500084545000807
:1036F000024B0A4601461868FFF7B6BFD006002005
:1037000000F00CB830B4044C0D46134601462A466E
:10371000206830BC00F002B8D00600202DE9F04F40
:103720000C4691B091461E46054610B1836B002BA6
:1037300073D0A38903F48473B3F5847F75D0D4F870
:103740002880B8F1000F00F03E81012E4AD0022EF1
:1037500008D03EB116232B604FF0FF37384611B02A
:10376000BDE8F08F4FF0000A23695746002B00F0A8
:103770001581A28940F61A0391B20B4043B949055D
:103780005ED4934B984500F0F68042F40062A2812B
:1037900028462146FFF75CFE07460028DCD14A4652
:1037A00033462846E169C0470130D5D0216B41B18D
:1037B00004F14003994202D0284609F09FFC0023FF
:1037C0002363A3892269226023F402630021A38179
:1037D000616004F15C00082200F00EFD384611B073
:1037E000BDE8F08F28462146FFF732FEA38903F497
:1037F000805292B2002A00F0B480276D5E075CD43C
:10380000180740F1AC80226823690AB1D21A174424
:10381000B9444FF0010A0026A8E7FFF71BFFA38970
:1038200003F48473B3F5847F89D128462146FFF7DA
:103830000FFE84E7A3894FF480621343A381E264FF
:10384000002E43D1CB46BAF1000F4ED1A389DA0442
:1038500040F1A980206D6368216BC71A002900F030
:10386000AB80E26BBF1A1F442069A36B1B1AFF1ABF
:103870001344BB453FDBFA1893453CD2C7EB0B071B
:103880003844DB1B84E8090041B104F1400399424C
:1038900002D0284609F032FC00232363A38923F0D9
:1038A0002003A38104F15C000021082200F0A4FCA5
:1038B0000027384611B0BDE8F08F6268236BBF1A4D
:1038C000002B4CD0E26B2369BF1AA1E72846B4F95C
:1038D0000E1001AA00F07EF800287FF459AF059B76
:1038E00009EB030BBAF1000FB0D0216B636800291C
:1038F00062D0E26BB7E7E76CE1697F420BEA07074A
:103900003A4628460023C04701303FF441AF2369BF
:10391000216B23600023636041B104F140039942AD
:1039200002D0284609F0EAFB00232363A389BBEBFE
:10393000070B23F02003A381B4D02846214600F0D2
:10394000C7FC00287FF424AF626893453FF620AFA0
:103950002368CBEB02025B4462602360A2E7236929
:1039600056E733462846E169C047431C07463FF403
:10397000F3AEA38942E7B4F90E100029FFF605AFB4
:10398000284601AA00F026F830B9029B03F47043E0
:10399000B3F5004F3FF44EAFA289F6E62846214624
:1039A00000F030FAE5E6012352462846E169C047B7
:1039B000431C7FF450AFEBE622682069121ABF1A4D
:1039C0001344002155E71D232B604FF0FF37C5E658
:1039D0004545000838B5084C002305460846114601
:1039E0002360FDF7C2F9431C00D038BD2368002BCB
:1039F000FBD02B6038BD00BF580F00209368002B10
:103A00007AD02DE9F04FB1F80CE01EF0080F83B02A
:103A10000C468146164626D00B6923B30EF00208E9
:103A20001FFA88F0356870B34FF0000ADFF8E0B293
:103A3000D046D8454346524628BF5B464846B8F173
:103A4000000F53D0E169676AB847002873DDB36897
:103A50001B1A8244C0EB0808B360002BE9D1002098
:103A600003B0BDE8F08F4846214603F08DF90028E9
:103A700040F04581B4F80CE035680EF002081FFAFA
:103A800088F00028D0D11EF0010B5DD1D846B8F1E6
:103A9000000F25D01EF4007FA7682FD0B845BA4686
:103AA000C0F0A9801EF4906F40F0B68020685246A6
:103AB000594600F03DFBA0682268C01B02EB0A03D8
:103AC000A06023604046B3681B1A8344C0EB08081B
:103AD000B360002BC3D0B4F80CE0B8F1000FD9D11B
:103AE000D5F800B0D5F804800835D0E7D5F800A0A7
:103AF000D5F8048008359CE70020704720682369CA
:103B0000984203D86269904580F0B980474528BF44
:103B100047463A46594600F00BFBA3682268DB1B78
:103B20003A44A3602260002B4AD148462146FFF761
:103B30008FFC002844D0A38943F040034FF0FF30AE
:103B4000A38103B0BDE8F08F804600908346824693
:103B5000BAF1000F2CD0009B002B50D020682169B7
:103B6000D4F808E06269D045434628BF53468842EE
:103B70001F4604D90EEB020C634500F3928093427A
:103B800020DB1346676AE16948465A46B847071E74
:103B9000D1DDB8EB070825D0B368DB1BBB44C7EB0E
:103BA0000A0AB360002B3FF45AAFBAF1000FD2D12A
:103BB0000023D5F800B0D5F804A000930835C7E776
:103BC000384680E71A465946019300F0B1FAA268D8
:103BD0002168019BB8EB0708A2EB03020B44A2602B
:103BE0002360D9D148462146FFF732FC0028A2D1F4
:103BF000CDF80080D0E720684746C24657E75846D0
:103C00000A21524600F07EF9002873D001300123CA
:103C1000CBEB00080093A1E767692169236807EBF4
:103C200047075B1A07EBD777581C7F104044874241
:103C30003A463CBF07463A461EF4806F009346D092
:103C40001146484609F056FA009B8246002859D092
:103C50001A462169009300F0D1F9A289009B22F451
:103C6000906242F08002A2810AEB0300FB1AC4F8C2
:103C700010A067612060A3604746C24617E76FF057
:103C80000043434528BF4346676A93FBF2F3484627
:103C900003FB02F3E1695A46B84700283FF713AF28
:103CA00049E762465946CDF804C000F041FA23685E
:103CB000DDF804C06344236048462146FFF7C8FB93
:103CC000DDF804C000287FF436AF674661E7484658
:103CD00009F012FA009B82460028C5D148462169A6
:103CE00009F00CFAA3890C2223F080039BB2C9F8D7
:103CF000002021E701230AF1010800932EE74FF08D
:103D0000FF30ADE60C23C9F80030A38914E700BFEB
:103D100000FCFF7F2DE9F04110F538771BD0884675
:103D200000267D68BC68013D0FD4A389012B05F1F5
:103D3000FF3506D9B4F90E300133204601D0C04713
:103D400006436B1C04F16804EFD13F68002FE8D1F3
:103D50003046BDE8F0813E463046BDE8F08100BF08
:103D60002DE9F84310F538771FD0884606464FF006
:103D700000097D68BC68013D11D4A389012B05F1C0
:103D8000FF3508D9B4F90E3001332146304602D050
:103D9000C04749EA00096B1C04F16804EDD13F6893
:103DA000002FE6D14846BDE8F883B9464846BDE84D
:103DB000F88300BF70B50F4E0F4D761BB61018BFBD
:103DC000002405D0013455F8043B9847A642F9D1A8
:103DD0000A4E0B4D761B09F085FFB61018BF002464
:103DE00006D0013455F8043B9847A642F9D170BD7E
:103DF00070BD00BF500B0020500B0020580B00205E
:103E0000500B00208B899AB212F0020F3CD1F0B512
:103E10000C46B1F90E10002991B0054619DB01AA34
:103E2000FFF7D8FD002812DB029B03F47043B3F5C3
:103E3000004FA3F50057B7FA87F74FEA57172AD074
:103E4000A38943F40063A3814FF480660BE0A38948
:103E50009AB212F0800F43F40063A3810CBF4FF4B9
:103E60008066402600272846314609F043F9A38999
:103E700040B31A4AEA6343F08003A38120602061C3
:103E800066619FB911B0F0BD01F1430301220B60DF
:103E90000B614A617047124BA26A9A42D0D1A38942
:103EA0004FF480663343A381E664DCE72846B4F927
:103EB0000E1004F0C1F80028E4D0A38943F00103F8
:103EC000A381DFE79A05DDD404F1430243F0020346
:103ED0000121A381226022616161D3E7A13400083E
:103EE00045450008024B0146186809F003B900BFB8
:103EF000D0060020024B0146186809F0FFB800BF49
:103F0000D0060020830770B4C9B240D0541E002AE6
:103F10003FD003788B4218BF431C06D11DE0F4B19B
:103F200002788A4204F1FF3417D013F0030F1846C9
:103F300003F10103F3D1032C14D884B103788B422D
:103F40000BD00519431C02E002788A4205D0AB422F
:103F5000184603F10103F7D1002070BC70472046DA
:103F600070BC704741EA0126024646EA0646104602
:103F7000043203687340A3F1013525EA030313F00B
:103F8000803FDAD1043C032C1046F0D8D5E7144624
:103F9000D1E71046E1E700BF032A70B426D940EA12
:103FA00001039B0711D004780D78AC4222D1024462
:103FB000431C05E013F8014B11F8015FAC4219D125
:103FC0009342F7D1002070BC70470C4603461E6830
:103FD0002568AE421846214603F1040304F10404A7
:103FE00004D1043A032A18462146F0D8002ADAD12F
:103FF0001046E8E7601B70BC704700BF844641EA8A
:10400000000313F003036DD1403A41D351F8043B50
:1040100040F8043B51F8043B40F8043B51F8043BA2
:1040200040F8043B51F8043B40F8043B51F8043B92
:1040300040F8043B51F8043B40F8043B51F8043B82
:1040400040F8043B51F8043B40F8043B51F8043B72
:1040500040F8043B51F8043B40F8043B51F8043B62
:1040600040F8043B51F8043B40F8043B51F8043B52
:1040700040F8043B51F8043B40F8043B51F8043B42
:1040800040F8043B51F8043B40F8043B403ABDD2B1
:10409000303211D351F8043B40F8043B51F8043B53
:1040A00040F8043B51F8043B40F8043B51F8043B12
:1040B00040F8043B103AEDD20C3205D351F8043BE2
:1040C00040F8043B043AF9D2043208D0D2071CBFAE
:1040D00011F8013B00F8013B01D30B8803806046D7
:1040E000704700BF082A13D38B078DD010F003034D
:1040F0008AD0C3F10403D21ADB071CBF11F8013BBD
:1041000000F8013B80D331F8023B20F8023B7BE70B
:10411000043AD9D3013A11F8013B00F8013BF9D236
:104120000B7803704B7843708B78837060467047D0
:104130008842F0B50DD98B1898420AD28118002A0E
:1041400054D09A1A13F8014D01F8014D9342F9D158
:10415000F0BD0F2A48D940EA01039B0747D100F17F
:10416000100401F11003154653F8106C44F8106C5C
:1041700053F80C6C44F80C6C53F8086C44F8086C59
:10418000103D53F8046C44F8046C0F2D03F1100338
:1041900004F11004E8D8A2F1100323F00F0302F099
:1041A0000F0E1033BEF1030F1944034421D91E1F13
:1041B0000D467446043C55F8047B46F8047F032CF6
:1041C000F8D8AEF1040424F0030404342344214459
:1041D00002F0030252B1013B0A4411F8014B03F80B
:1041E000014F9142F9D1F0BD0346F3E7F0BD03461C
:1041F000F1E77246EEE700BF70B4840746D0541E64
:10420000002A41D0CDB2034602E0621EE4B3144658
:1042100003F8015B9A07F8D1032C2ED9CDB245EAF9
:1042200005250F2C45EA054519D903F1100226464C
:10423000103E0F2E42F8105C42F80C5C42F8085C0D
:1042400042F8045C02F11002F2D8A4F1100222F04C
:104250000F0204F00F041032032C13440DD91E4634
:104260002246043A032A46F8045BFAD8221F22F0B9
:1042700003020432134404F003042CB1C9B21C44F9
:1042800003F8011BA342FBD170BC704714460346E0
:10429000C2E700BF70B5084C064600250846114627
:1042A0001A462560FCF72EFE431C00D070BD236823
:1042B000002BFBD0336070BD580F0020838903F0C2
:1042C0000903092B01D000207047FFF7D7B800BFC2
:1042D000F8B50C46054610B1836B002B43D0A3897B
:1042E0009AB2970407D4626E43F4005322F400524A
:1042F0006266A3819AB200219606616030D45007AD
:1043000021D5216B61B104F14003994202D02846C6
:1043100008F0F4FEE36B636000202063002B3ED1C5
:104320002369002B4BD0A789BEB2B3071ED12269E7
:1043300022602846E169256A6369A8470028606011
:1043400009DD0020F8BDD1063ED512072AD443F07E
:104350000403A381E4E7A38919D143F02003A381D7
:104360004FF0FF30F8BDFFF775F9B8E71A4B1B495E
:1043700018680123A38106F00906FFF7CBFC092E7C
:10438000A781D4D128462146FEF7B8FFCFE7002207
:1043900043F04003A38162604FF0FF30F8BDA36B90
:1043A0002360F8BD28462146FFF752F80028D7D1F0
:1043B000A389A06023F00803A0619BB2C7E7284649
:1043C0002146FFF71FFDAEE743F0400309222A60B4
:1043D0004FF0FF30A381F8BD00EA0008BD4200089D
:1043E00000290CBF022200224FF4806300F000B8C5
:1043F0002DE9F0413A4C26680D46044690461F468A
:1044000016B1B36B002B3CD0B8F1020F2FD8002FA0
:104410002DDB21463046FFF71BF8A189002363609E
:10442000A3610B0627D421F0830189B2B8F1020FF2
:10443000A1812AD0002D36D0B8F1010F11D089B258
:1044400001F00800274BF36380B2256025616761A6
:1044500078B111F0030F18BF0027A7600020BDE856
:10446000F08141F001017B42A181A361E7E74FF0B8
:10447000FF30BDE8F0812169304608F03FFEA18998
:10448000D1E73046FFF7E6F8BEE7002004F143032A
:1044900041F0020100250122A181A5602360236172
:1044A0006261BDE8F081002F08BF4FF48067384695
:1044B000FFF718FD054628B1A18941F0800189B2B6
:1044C000A181B9E74FF48060FFF70CFD054618B9EC
:1044D000A1894FF0FF30D9E74FF48067ECE700BFC8
:1044E000D0060020A134000810B50C46B1F90E101A
:1044F00004F06AFA002803DB236D0344236510BD32
:10450000A38923F48053A38110BD00BF2DE9F0419E
:1045100016468A891D46D3050C46074606D5002255
:10452000B1F90E10022303F0B5FDA289B4F90E1003
:1045300022F48052A281384632462B46BDE8F04133
:1045400002F00EBC10B50C46B1F90E1003F0A2FD3E
:10455000A389421C0EBF23F4805343F4805320658B
:10456000A38110BDB1F90E1002F070BC0000000074
:10457000000000000000000000000000000000003B
:10458000A2EB0300704700BF02780B78012A28BF16
:104590009A42F5D16DE9044540EA0104CDE902678C
:1045A0006FF0000C4FEA447212B380EA010414F079
:1045B000070F6AD100F0070420F0070004F003059C
:1045C00021F007014FEAC505F0E8042314F0040FB9
:1045D000F1E804670CFA05F462EA040266EA0406EC
:1045E0000AD063EA0403624667EA0407664603E00A
:1045F000F0E80423F1E8046782FA4CF582EA060445
:10460000A4FA8CF46CBB83FA4CF583EA0705A5FA8F
:104610008CF595B950E9022351E9026782FA4CF50D
:1046200082EA0604A4FA8CF483FA4CF583EA0705BF
:10463000A5FA8CF52543DBD09CB92DBAB5FA85F4E3
:1046400024F0070427FA04F1DDE9026723FA04F3F2
:1046500003F0FF0001F0FF01FDE80445A0EB0100BD
:10466000704724BAB4FA84F424F0070426FA04F15B
:10467000DDE9026722FA04F202F0FF0001F0FF0117
:10468000FDE80445A0EB0100704714F0030F3CD196
:1046900010F0030428D150F8082B51F8083B82FA97
:1046A0004CF582EA0305A5FA8CF55DB950F8042CA7
:1046B00051F8043C82FA4CF582EA0305A5FA8CF520
:1046C000002DE8D02DBAB5FA85F424F0070423FABA
:1046D00004F122FA04F202F0FF0001F0FF01FDE80C
:1046E0000445A0EB010070474FEAC40420F003002A
:1046F00050F8082B21F0030151F8083B0CFA04F4A0
:1047000062EA040263EA0403C9E710F003041AD062
:10471000A1EB040120F00300E40750F8042B06D0BD
:104720000FD28B785FFAA2F4E41A06D12BB1CB78C2
:104730005FFAB2F4E41A00D11BB920465DF8104BC1
:10474000704701F1040150F8042BCC0721F003015C
:1047500051F8043B48D824D222F07F4482FA4CF529
:1047600094EA1325A5FA8CF50AD165B951F8043BF2
:1047700084EA0204B4EB036F0ED150F8042BEBE78C
:104780004FEA132355E035F07F454DD10878FDE819
:104790000445C0F1000070474FEA126203F0FF03C6
:1047A00047E002EA1C4482FA4CF594EA1345A5FA64
:1047B0008CF50AD165B951F8043B84EA0204B4EBE4
:1047C000034F0CD150F8042BEBE74FEA134330E0D2
:1047D00015EA1C4528D10B884FEA124229E04FEA1E
:1047E000124203EA1C4324E002F0FF0482FA4CF573
:1047F00094EA1365A5FA8CF50AD165B951F8043B22
:1048000084EA0204B4EB032F09D150F8042BEBE740
:104810004FEA13630DE015F0FF0F05D10B684FEA67
:10482000122223F07F4304E04FF00000FDE804452E
:10483000704712BA1BBA82FA4CF482EA0304A4FA53
:104840008CF5B5FA85F402FA04F203FA04F34FEAA0
:104850001260FDE80445A0EB1360704720F00301EF
:1048600010F00300C0F1000051F8043B00F1040C0B
:104870004FEACC0C6FF000021CBF22FA0CF213437B
:104880004FF0010C4CEA0C2C4CEA0C4CA3EB0C0244
:1048900022EA030212EACC1204BF51F8043B0430AE
:1048A000F4D0C2F1000102EA0102B2FA82F2C2F1CE
:1048B0001F0200EBD200704770B40478A4B10E78E8
:1048C00005464EB1B4420AD00A4601E09C4206D0E9
:1048D00012F8013F002BF9D1281A70BC704715F867
:1048E000014F002CEDD1F7E72046F6E7000000006D
:1048F0002DE9F04FC1B01C4689460892074603F0E7
:10490000C5FB036815931846FFF7A8FF0C94169093
:104910001FB1BB6B002B00F0F380B9F80C2093B2F1
:104920009E040AD4D9F8641042F4005321F40051D3
:10493000A9F80C30C9F864109BB21D0740F1AA8099
:10494000D9F81020002A00F0A58003F01A030A2BE2
:1049500000F0AC809FED6E7B00238DED127B1193F8
:104960002593249314931793099330AB23931C46F8
:10497000B846089D2B78002B00F0C680252B02D16D
:10498000C2E0252B03D015F8013F002BF9D1089B7D
:10499000EE1A7EB1249B259A089921600133324496
:1049A000072B66602592249300F393800834099BBB
:1049B000334409932B78002B00F093800023691C6B
:1049C0004FF0FF3A6D788DF86F301A460A930693D0
:1049D00056464B1CA5F12001582900F2CD83DFE893
:1049E00011F05C02CB03CB030203CB03CB03CB035D
:1049F000CB03CB03CB030903D202CB03F801530350
:104A0000CB03D602DD02DD02DD02DD02DD02DD02C6
:104A1000DD02DD02DD02CB03CB03CB03CB03CB03F3
:104A2000CB03CB03CB03CB03CB0371029302CB03AA
:104A30009302CB03CB03CB03CB03CB02CB03CB0340
:104A40006E03CB03CB03CB03CB03CB03B503CB0369
:104A5000CB038B03CB03CB03CB03CB03CB03CB0326
:104A6000CB03CB03CB03CB03A00317039302930227
:104A7000930230031703CB03CB033703CB0341036C
:104A8000FF01EC026302CB031102CB039B00CB03BB
:104A9000CB0336023846494602F076F9A0B9B9F898
:104AA0000C3003F01A030A2B7FF454AFB9F90E301F
:104AB000002BFFF64FAF38464946089A234601F0CF
:104AC00037F941B0BDE8F08F4FF0FF3041B0BDE89D
:104AD000F08F4046494623AA06F024FE40B930AC88
:104AE00065E7259B23B14046494623AA06F01AFEF6
:104AF000B9F80C305A06E7D4099841B0BDE8F08FF8
:104B00003846FEF7A7FD08E7089D53E7AFF300809E
:104B100000000000000000000893069BB2469E06BD
:104B200040F11E830C9F073727F0070303F10802AB
:104B3000D3E900670C9201234FF0000C8DF86FC091
:104B4000CDF83CA0BAF1000F03DB069A22F08002F8
:104B5000069256EA070240F01F83BAF1000F00F0F8
:104B60001C84012B00F02083022B00F0528430A91A
:104B7000F20842EA4772F80806F0070307461646AD
:104B8000303356EA070201F8013DF1D1069A0E9141
:104B9000D00700F1F98430AB5B1A0B930B9A924566
:104BA0005346B8BF1346079300231093BCF1000F80
:104BB00002D0079B01330793069B13F002030D936A
:104BC00002D0079B02330793069B13F0840640F044
:104BD000E0820A9B079AC2EB030ABAF1000F40F386
:104BE000D882BAF1100F2599249AB34FC8BF4FF05D
:104BF000100B07DC1EE0AAF1100ABAF1100F04F145
:104C0000080417DD01321031072A2591249284E827
:104C10008008F0DD4046494623AA06F083FD0028BF
:104C20007FF466AFAAF1100ABAF1100F2599249A01
:104C300030ACE7DC01320AEB010B072ACDF894B067
:104C4000249284E8800400F34A849DF86FC00834FD
:104C5000BCF1000F0FD0249B01330BF1010B0DF1C0
:104C60006F010122072BCDF894B0249384E806004D
:104C700000F3B18308340D9B73B1249B01330BF116
:104C8000020B1CA90222072BCDF894B0249384E8D0
:104C9000060000F3AC830834802E00F0F0820F9BF6
:104CA0000B9AC2EB030ABAF1000F32DDBAF1100F12
:104CB000249A824F22DD10265B4606E0AAF1100AF4
:104CC000BAF1100F04F1080417DD01321033072A7E
:104CD0002593249227606660F0DD4046494623AA6A
:104CE00006F020FD00287FF403AFAAF1100ABAF104
:104CF000100F259B249A30ACE7DC9B460132D3444D
:104D0000072ACDF894B0249284E8800400F35783F6
:104D10000834069BDB0500F15B82249B0B990E9AFD
:104D2000226001338B44072BCDF894B0616024934B
:104D300000F31D830834069B59073AD50A9B079A4E
:104D40009D1A002D35DD102D249B5B4F1EDD102696
:104D50005A4604E0103D102D04F1080415DD01331E
:104D60001032072B2592249327606660F2DD4046BF
:104D7000494623AA06F0D6FC00287FF4B9AE103DC0
:104D8000102D259A249B30ACE9DC93460133AB44CB
:104D9000072BCDF894B024932760656009DD404669
:104DA000494623AA06F0BEFC00287FF4A1AEDDF838
:104DB00094B0099B079A0A998A42ACBF9B185B186A
:104DC0000993BBF1000F40F0DE820023249330AC46
:104DD000CFE5194606981D7840F004000690F8E5E6
:104DE0000893069B13F02003B24600F073810C9FDA
:104DF000073727F0070303F10802D3E900670C9295
:104E0000002399E60C9A089313680E934FF0000B59
:104E10008DF86FB0171D002B00F06086002E0E98E5
:104E2000C0F2128659463246FFF76CF8002800F0AF
:104E300091860E9BCDF83CB0C31A0B930C9723EAD6
:104E4000E3730793CDF840B09DF86FC0AEE60893CA
:104E50001B4B1493069B8DF86F209906B24640F1C8
:104E600055810C9F073727F00703D3E9006703F14B
:104E700008020C92069BDB0740F1E48256EA070326
:104E800000F0E082069A8DF87150302342F0020261
:104E90008DF87030069202234EE61D781946002ADE
:104EA0007FF497AD202294E5069941F02001069108
:104EB0001D7819468DE500BF58EA000804EA00088D
:104EC00038EA00080893069B8DF86F2043F0100322
:104ED0000693069B9806B24640F1A2800C9F0737C6
:104EE00027F00707D7E9002307F108010C911646C0
:104EF0001F46002A73F10003C0F21C849DF86FC0A6
:104F0000CDF83CA001231DE60893069B0C9F8DF86D
:104F10006F201B07B246B34607F1070740F19B8499
:104F200027F0070393ED007B8DED127B03F1080260
:104F30000C92DDE9120103F05BFD0128DDE91201AD
:104F400040F006840022002307F046FD002840F0D0
:104F5000EE859DF86FC0069E994A9A4B032100206A
:104F600026F08006472DD8BF1A4607910F90069667
:104F70000E920B91109019E6069941F008010691E6
:104F80001D78194625E51D7819462B2221E506993D
:104F900041F0800106911D7819461AE5A5F130000F
:104FA000002113F8015B01EB810100EB4101A5F148
:104FB00030000928F5D90A910CE50C9908933023A3
:104FC000069A8DF870300B460433782542F00202C1
:104FD0000C937D4B1493B24606920E688DF8715077
:104FE00000270223A8E5069941F0010106911D78EA
:104FF0001946EEE40C9D29680A91084600282946C6
:1050000001F10401C0F2EE840C911D781946E0E430
:105010000893069B8DF86F209806B2463FF55EAF69
:10502000069BD90600F19B82069B5A0640F19782A7
:105030000C99B1F900600431F71732463B460C91E8
:1050400057E7069941F0400106911D781946C0E4E2
:105050001D7806996C2D00F0BE8441F01001069178
:105060001946B6E40893069B8DF86F209A0640F126
:10507000FD830C9A09991368CF1708460432394604
:105080000C92C3E9000174E41D782A2D03F101019B
:1050900000F02C86A5F1300009280B464FF00006E1
:1050A0003FF698AC13F8015B06EB860600EB46066C
:1050B000A5F130000928F5D946EAE6768AE4089396
:1050C000069B43F010030693069B13F02003B246A1
:1050D0007FF48DAE069A12F0100240F03882069BE3
:1050E00013F0400300F033820C9913460A46043251
:1050F0000E880C9200271FE50893344B1493069BEF
:105100008DF86F209906B2463FF5ABAE069BDA06E6
:1051100040F1D1830C9A1346043316680C93002790
:10512000A8E60C9908930A688DF8982000230122BC
:1051300004319C4607920C918DF86F3026ABCDF868
:105140003CC0CDF840C00B920E9335E50893069B0A
:1051500043F010030693069BB2469E063FF5E2AC71
:10516000069BD80640F199830C9A134604321E68B8
:105170000C9201230027DFE408938DF86F20002DA7
:105180003FF4AFAC002301229C4607928DF8985063
:10519000D2E7DDF894B05BE5012B7FF4E5AC002F9E
:1051A00008BF0A2E80F0FF810DF5807B30360BF8AA
:1051B000416D30ABCBEB03030B93CDF838B0EDE48E
:1051C00018EA000814EA000838EA000824EA00088F
:1051D000652D40F38A80DDE912010022002307F0EB
:1051E000F1FB002800F03181249BAE4A226001339C
:1051F0000BF1010B0122072BCDF894B024936260D0
:1052000000F3728308341D9B119A934203DB069BC3
:10521000DF077FF590AD249B1699159A2260013324
:105220008B44072BCDF894B06160249300F3E183A5
:105230000834119B5D1E002D7FF77DAD102D249B42
:10524000994F40F3968110265A4604E00834103DE9
:10525000102D40F38D8101331032072B25922493BA
:1052600027606660F2DD4046494623AA06F05AFAF6
:1052700000287FF43DAC259A249B30ACE7E70A9BDD
:10528000079A9E1A002E7FF70AAD102E249A864F99
:105290001FDD4FF0100A5B4604E0103E102E04F1B3
:1052A000080415DD01321033072A2593249284E87F
:1052B0008004F2DD4046494623AA06F033FA00286E
:1052C0007FF416AC103E102E259B249A30ACE9DCFE
:1052D0009B460132B344072ACDF894B0249227604C
:1052E000666000F31A820834D9E4119B249D012BD7
:1052F00040F3D5810E9B236001350BF1010601239C
:10530000072D25962495636000F3E5810834169AED
:10531000159B236001351644072D25962495626060
:1053200000F3EF8108340023DDE91201002207F0C9
:1053300049FB119B002840F0E1800E9A013B0135AA
:1053400001321E44072D249525962260636000F3E8
:10535000B6810834179A6260013506EB020B1FAB69
:10536000072DCDF894B0249523607FF7E3AC404639
:10537000494623AA06F0D6F900287FF4B9ABDDF838
:1053800094B030ACD7E44046494623AA06F0CAF9A7
:1053900000283FF41AADFFF7ABBB002B33D1069BBF
:1053A000DA0730D50DF5807B30230BF8413D30AB6B
:1053B000CBEB03030B93CDF838B0FFF7EFBB4046C0
:1053C000494623AA06F0AEF900287FF491ABDDF838
:1053D00094B030AC9DE44046494623AA06F0A2F9B9
:1053E00000287FF485ABDDF894B030AC43E4404650
:1053F000494623AA06F096F900287FF479ABDDF838
:1054000094B030AC48E430ABCDF82CA00E93FFF74D
:10541000C5BB14980DF1C00B330906F00F0143EA28
:1054200007733A091E461746435C0BF8013D56EADE
:105430000703F1D15A4630AB9B1ACDF838B00B9325
:10544000FFF7ACBB0223FFF777BB1D9D002D40F398
:105450005782119A10998A421346A8BF0B461D46DF
:105460000E99002D01EB020A0BDD249B2160013314
:10547000AB44072BCDF894B06560249300F30B8305
:105480000834109B002DA8BF5B1B002B1D4640F36A
:10549000B080102D249B044F40F31A8210265A46E8
:1054A00009E000BF54EA000804EA00080834103D8F
:1054B000102D40F30C8201331032072B25922493D8
:1054C00027606660F2DD4046494623AA06F02AF9C5
:1054D00000287FF40DAB259A249B30ACE7E74046CB
:1054E000494623AA06F01EF900287FF401AB9DF877
:1054F0006FC0DDF894B030ACFFF7AABB03F1FF3A00
:10550000BAF1000F7FF726AFBAF1100F8F4FC8BF67
:105510004FF0100B07DCEAE00834AAF1100ABAF1E8
:10552000100F40F3E48001351036072D25962495A1
:1055300084E88008F0DD4046494623AA06F0F2F8E8
:1055400000287FF4D5AA259E249D30ACE5E70C9970
:105550000A4604320E680C920027FFF7EDBA0C9A47
:10556000166813460433F7170C9332463B46C0E4E3
:1055700093460133AB44072BCDF894B024932760B6
:1055800065607FF7D7ABF2E6302B00F03E820E9BD2
:10559000013B1A4630A80E93821A30230B9201F871
:1055A000013CFFF7FBBA0DF1C00BCDF81CC0304633
:1055B00039460A22002307F0CFFA30323046394606
:1055C0000BF8012D00230A2207F0C6FA06460F4603
:1055D00056EA0703EBD1DDF81CC02BE740464946ED
:1055E00023AA06F09FF800287FF482AADDF894B081
:1055F00030AC0E9A10991D9B0A441646119A93429C
:105600003EDB069AD5073BD4119AC6EB0A05D31A9E
:105610009D42A8BF1D46002D2F460BDD249A266013
:105620000132AB44072ACDF894B06560249200F3B0
:1056300068820834002FACBFDD1B1D46002D7FF7AC
:105640007AAB102D249B414F93DD10265A4603E080
:105650000834103D102D8BDD01331032072B2592BD
:10566000249327606660F3DD4046494623AA06F08E
:1056700059F800287FF43CAA259A249B30ACE8E72F
:10568000249A16981599216001328344072ACDF88F
:1056900094B06060249200F30A820834B4E7069B59
:1056A000D8073FF527AE0E9B236001350BF10106AD
:1056B0000123072D2596249563607FF74AAE404667
:1056C000494623AA06F02EF800287FF411AA259E49
:1056D000249D30AC3EE64046494623AA06F022F817
:1056E00000287FF405AA259E249D30AC0FE60135E5
:1056F0005644072D2596249584E880047FF729AE2B
:10570000DDE74046494623AA06F00CF800287FF45E
:10571000EFA9259E249D30AC05E64046494623AAC4
:1057200006F000F800287FF4E3A9DDF894B030AC6F
:10573000FFF7B5BA4FF02D0C764267EB47078DF8AF
:105740006FC0CDF83CA00123FFF7FCB904EA0008C4
:1057500003F04EF9002800F0188125F02003BAF17B
:10576000FF3F079300F06482472B05D1BAF1000F89
:1057700014BFD3464FF0010B139B069A002B42F443
:1057800080720D92C0F264829DED127B8DED187BCC
:105790004FF0000A662D00F06081462D00F05D811B
:1057A000079B452B0CBF0BF101075F4602201DA98B
:1057B0001EAA21AB8DE8810003920493029140461A
:1057C000DDE9182301F0ECFB672D0E9002D0472D88
:1057D00040F05381069BDB0740F143820E9BDE19AC
:1057E000DDE918010022002307F0ECF8002840F062
:1057F000AF81219B9E4206D930215A1C21921970FB
:10580000219B9E42F9D80E9A9B1A1193079B472B16
:105810001D9B00F08581652D40F3A881662D1093B6
:1058200000F02182119B109A934200F30482069BA0
:10583000D90700F13B8222EAE2730B92BAF1000F22
:1058400040F07B8107930D9B0693CDF83CA09DF81B
:105850006FC0FFF7ABB927F0070797ED007B07F1A3
:1058600008038DED127B0C93FFF763BB069BDB06F1
:105870000BD4069B5F0608D50C9A136804320C9271
:10588000BDF824201A80FFF774B80C9A136804320C
:105890000C92099A1A60FFF76CB8069B0C9A13F0E9
:1058A000400F13463FF462AC1688043200270123F0
:1058B0000C92FFF741B9069B0C9A13F0400F134668
:1058C00076D0043316880C930027FFF7D3BA93469B
:1058D0000133AB44072BCDF894B024932760656067
:1058E0003FF77CAE083484E64046494623AA05F0DB
:1058F00019FF00287FF4FCA8DDF894B030AC82E4F6
:10590000249BB14A226001330BF1010B0122072BCA
:10591000CDF894B02493626050DC08342DB9119B0B
:105920001BB9069BDE077FF506AA249B1699159ADC
:10593000226001330BEB0102072B25926160249357
:1059400000F3698108346D42002D6FDD102D9F4FEB
:10595000C8BF102605DCB7E00834103D102D40F319
:10596000B38001331032072B2592249327606660A1
:10597000F2DD4046494623AA05F0D4FE00287FF414
:10598000B7A8259A249B30ACE7E7069E904A914B36
:105990009DF86FC00F90032126F08006472DD8BFD9
:1059A0001A460791069610900E920B91FFF7FEB8DB
:1059B000043316680C930027FFF75CBA404649464B
:1059C00023AA05F0AFFE00287FF492A81D9DDDF804
:1059D00094B030ACA2E741F0200106915D78591CEB
:1059E000FEF7F7BF0A980C9140420A901946FFF75C
:1059F000F1B94046494623AA05F094FE00287FF4F9
:105A000077A8DDF894B030AC13E40E9A30AB9B1A53
:105A10000B93FFF7C3B84046494623AA05F082FE20
:105A200000287FF465A8259A249B30AC119860600B
:105A3000013302EB000B072B0E9ACDF894B02493A0
:105A400022607FF777A992E4CDF83CB0FEF706FF1D
:105A50000C970B900346FFF7F2B903201DA91EAA6D
:105A600021AB8DE801080392049302914046DDE9E1
:105A7000182301F095FA5F460E900E9BDE19079BE6
:105A8000462B7FF4ADAE0E9B1B78302B00F00081CF
:105A90001D9F3E44A4E64046494623AA05F042FE27
:105AA00000287FF425A8DDF894B030ACE9E4404646
:105AB000494623AA05F036FE00287FF419A81D9B4D
:105AC000DDF894B030AC9FE501332A44072B2592D2
:105AD0002493276065609EDC0834A7E7062E3346D2
